:100000000C9434000C9449000C9449000C94490061
:100010000C9449000C9449000C9449000C9449003C
:100020000C9449000C9449000C9449000C9449002C
:100030000C9449000C9449000C9449000C9449001C
:100040000C9449000C9449000C9449000C9449000C
:100050000C9449000C9449000C9449000C944900FC
:100060000C9449000C94490011241FBECFEFD8E036
:10007000DEBFCDBF11E0A0E0B1E0ECE4F2E002C0F1
:1000800005900D92A234B107D9F70E94A7000C94F5
:1000900024010C940000FC019191992339F0809186
:1000A000C00085FFFCCF9093C600F6CF0895CF9394
:1000B000DF9300D000D0CDB7DEB7843640F064E6E1
:1000C0000E941801805D8983892F91E003C08A30E6
:1000D00050F190E021E0290FE1E0F0E0EC0FFD1F8E
:1000E000E90FF11D6AE00E941801805D8083892F6D
:1000F000E1E0F0E0EC0FFD1FE20FF11D805D808379
:100100002F5FE1E0F0E0EC0FFD1FE20FF11D108228
:10011000CE0101960E944B000F900F900F900F9010
:10012000DF91CF91089520E0E3CF84EA8093BC0073
:100130008091BC0087FFFCCF08958093BB0084E8CA
:100140008093BC008091BC0087FFFCCF0895109283
:10015000C50080E18093C40082E08093C00088E005
:100160008093C10086E08093C2001092B90088E4B9
:100170008093B80080E091E00E944B00C0E0D4E999
:100180000E94950080EA0E949D0080E00E949D00F0
:100190008C2F0E949D008C2F0E949D00D093BC004C
:1001A00085E38A95F1F700008FE19EE40197F1F76E
:1001B00000C00000CF5FCB3019F78AE291E00E94C7
:1001C0004B00C0E004E814E90E94950080EA0E9418
:1001D0009D0080E00E949D008C2F0E949D000E9447
:1001E000950081EA0E949D000093BC008091BC00B4
:1001F00087FFFCCFD091BB001093BC0095E39A958C
:10020000F1F7000087E391E00E944B008C2F0E94E1
:1002100057008DE391E00E944B008D2F0E94570004
:1002200087E291E00E944B00CF5FCB3069F6FFCFB1
:10023000991B79E004C0991F961708F0961B881F38
:0C0240007A95C9F780950895F894FFCFD7
:10024C00454550524F4D20426172652D6D6574616C
:10025C006C202830783530290D0A57726974696E14
:10026C006720302E2E31300D0A00526561642062F9
:10027C0061636B3A0D0A00416464722000203D20DA
:02028C00000070
:00000001FF
