:100000000C9434000C9449000C9449000C94490061
:100010000C9449000C9449000C9449000C9449003C
:100020000C9449000C9449000C9449000C9449002C
:100030000C9449000C9449000C9449000C9449001C
:100040000C9449000C9449000C9449000C9449000C
:100050000C9449000C9449000C9449000C944900FC
:100060000C9449000C94490011241FBECFEFD8E036
:10007000DEBFCDBF11E0A0E0B1E0E6E6F2E002C0F5
:1000800005900D92A436B107D9F70E94A4000C94F4
:1000900031010C9400009091C00095FFFCCF80933B
:1000A000C6000895CF93DF93EC018991882319F05E
:1000B0000E944B00FACFDF91CF9108951F93CF9309
:1000C000DF93CDB7DEB761970FB6F894DEBF0FBEF2
:1000D000CDBF182F81E1E0E0F1E0DE011196019043
:1000E0000D928A95E1F7812F82958F70E1E0F0E023
:1000F000EC0FFD1FE80FF11D80810E944B001F7067
:10010000E1E0F0E0EC0FFD1FE10FF11D8081619651
:100110000FB6F894DEBF0FBECDBFDF91CF911F9118
:100120000C944B0084EA8093BC008091BC0087FF54
:10013000FCCF08958093BB0084E88093BC0080913D
:10014000BC0087FFFCCF08951092C50080E180932A
:10015000C40082E08093C00088E08093C10086E004
:100160008093C2001092B90088E48093B80081E1C6
:1001700091E00E945200C0E0D0E014E90E94920099
:1001800080EA0E949A008D2F0E949A008C2F0E9474
:100190009A0085E50E949A001093BC0085E38A9539
:1001A000F1F700008FE19EE40197F1F700C0000035
:1001B0002196C11590E1D90709F78FE291E00E94DD
:1001C000520081E491E00E945200C0E0D0E084E857
:1001D000D82E94E9E92E0E94920080EA0E949A00AB
:1001E000FD2E8D2F0E949A000C2F8C2F0E949A00BA
:1001F0000E94920081EA0E949A00D092BC008091F5
:10020000BC0087FFFCCF1091BB00E092BC0085E3EF
:100210008A95F1F700008CE591E00E9452008F2D45
:100220000E945E00802F0E945E008FE591E00E9498
:1002300052008CE591E00E945200812F0E945E00E6
:100240008CE291E00E9452008FE99FE00197F1F764
:1002500000C000002196C11590E1D90709F0BBCF7D
:06026000FFCFF894FFCF70
:1002660030313233343536373839414243444546E6
:1002760000454550524F4D20546573742028415413
:1002860032344333322C2030783530290D0A00576A
:100296007269746520636F6D706C6574652E0D0AE6
:1002A6000052656164696E6720454550524F4D2086
:1002B600636F6E74656E74733A0D0A0030780020B1
:0402C6003A200000DA
:00000001FF
