:100000000C9434000C943E000C943E000C943E0082
:100010000C943E000C943E000C943E000C943E0068
:100020000C943E000C943E000C943E000C943E0058
:100030000C943E000C943E000C943E000C943E0048
:100040000C943E000C943E000C943E000C943E0038
:100050000C943E000C943E000C943E000C943E0028
:100060000C943E000C943E0011241FBECFEFD8E04C
:10007000DEBFCDBF0E9464000C9477000C9400009A
:1000800080E480937C0087E880937A0008959091C3
:100090007C00907F8F70892B80937C0080917A0008
:1000A000806480937A0080917A0086FDFCCF8091F5
:1000B0007800909179000895569A84B5836884BD3C
:1000C00085B5826085BD08950E9440000E945C0055
:1000D00080E00E944700969587959695879587BD05
:1000E0008FE19EE40197F1F700C00000F1CFF89492
:0200F000FFCF40
:00000001FF
