:100000000C9434000C943E000C943E000C943E0082
:100010000C943E000C943E000C943E000C943E0068
:100020000C943E000C943E000C943E000C943E0058
:100030000C943E000C943E000C943E000C943E0048
:100040000C943E000C943E000C943E000C943E0038
:100050000C943E000C943E000C943E000C943E0028
:100060000C943E000C943E0011241FBECFEFD8E04C
:10007000DEBFCDBF0E9462000C9475000C9400009E
:1000800080E480937C0087E880937A0008959091C3
:100090007C00907F8F70892B80937C0080917A0008
:1000A000806480937A0080917A0086FDFCCF8091F5
:1000B000780090917900089583E884BD83E085BD40
:1000C000559A08950E9440000E945C0080E00E94C2
:1000D0004700969587959695879587BD8FE39CE910
:0E00E0000197F1F700C00000F1CFF894FFCFB8
:00000001FF
