:100000000C9434000C943E000C943E000C943E0082
:100010000C943E000C943E000C943E000C943E0068
:100020000C943E000C943E000C943E000C943E0058
:100030000C943E000C943E000C943E000C943E0048
:100040000C943E000C943E000C943E000C943E0038
:100050000C943E000C943E000C943E000C943E0028
:100060000C943E000C943E0011241FBECFEFD8E04C
:10007000DEBFCDBF0E9440000C9464000C940000D1
:10008000569A52985A9A80E021E039B191E0432F74
:10009000447032FF90E0213011F0292FF6CF41114A
:1000A000FCCF2FEF30E742E0215030404040E1F7F5
:1000B00000C000004A99F1CF813019F05E9A81E0CA
:0C00C000ECCF5E9880E0E9CFF894FFCF11
:00000001FF
