:100000000C9434000C9448000C9446000C94460068
:100010000C9446000C9446000C9446000C94460048
:100020000C9446000C9446000C9446000C94460038
:100030000C9446000C9446000C9446000C94460028
:100040000C9446000C9446000C9446000C94460018
:100050000C9446000C9446000C9446000C94460008
:100060000C9446000C94460011241FBECFEFD8E03C
:10007000DEBFCDBF21E0A0E0B1E001C01D92A23003
:10008000B207E1F70E9457000C9485000C94000021
:100090001F920F920FB60F9211248F9381E08093DD
:1000A00000018F910F900FBE0F901F901895569AD8
:1000B00052985A9A80916900826080936900809179
:1000C00069008E7F80936900E89A789491E080912E
:1000D00000018823E1F32FEF30E782E02150304028
:1000E0008040E1F700C000004A990CC080910101F6
:1000F00089278093010180910101882311F05E9A84
:0E01000001C05E9810920001E2CFF894FFCF8C
:00000001FF
