:100000000C9434000C9446000C9446000C9446006A
:100010000C9446000C9446000C9446000C94460048
:100020000C9446000C9446000C9446000C94480036
:100030000C9446000C9446000C9446000C94460028
:100040000C9446000C9446000C9446000C94460018
:100050000C9446000C9446000C9446000C94460008
:100060000C9446000C94460011241FBECFEFD8E03C
:10007000DEBFCDBF21E0A0E0B1E001C01D92A13004
:10008000B207E1F70E946B000C9479000C94000019
:100090001F920F920FB60F9211248F9381E08093DD
:1000A00000018F910F900FBE0F901F901895E1E8FF
:1000B000F0E080818860808383E294EF90938900F0
:1000C00080938800AFE6B0E08C9182608C93808151
:1000D000856080830895279A0E94570078948091C4
:1000E00000018823E1F385B1805885B910920001A1
:0600F000F6CFF894FFCFEB
:00000001FF
