:100000000C9434000C9449000C9449000C94490061
:100010000C9449000C9449000C9449000C9449003C
:100020000C9449000C9449000C9449000C9449002C
:100030000C9449000C9449000C9449000C9449001C
:100040000C9449000C9449000C9449000C9449000C
:100050000C9449000C9449000C9449000C944900FC
:100060000C9449000C94490011241FBECFEFD8E036
:10007000DEBFCDBF11E0A0E0B1E0ECE1F2E002C0F4
:1000800005900D92A235B107D9F70E949C000C94FF
:100090000C010C9400009091C00095FFFCCF809360
:1000A000C6000895CF93DF93EC018991882319F05E
:1000B0000E944B00FACFDF91CF9108951F93CF9309
:1000C000DF93CDB7DEB761970FB6F894DEBF0FBEF2
:1000D000CDBF182F81E1E0E0F1E0DE011196019043
:1000E0000D928A95E1F7812F82958F70E1E0F0E023
:1000F000EC0FFD1FE80FF11D80810E944B001F7067
:10010000E1E0F0E0EC0FFD1FE10FF11D8081619651
:100110000FB6F894DEBF0FBECDBFDF91CF911F9118
:100120000C944B008093BB0084E88093BC008091CA
:10013000BC0087FFFCCF08951092C50080E180933A
:10014000C40082E08093C00088E08093C10086E014
:100150008093C2001092B90088E48093B80081E1D6
:1001600091E00E9452008FE291E00E945200C0E0B4
:10017000D0E014EA84E8C82E94E9D92E1093BC008C
:100180008091BC0087FFFCCF80EA0E949200ED2E98
:100190008D2F0E949200FC2E8C2F0E9492001093B3
:1001A000BC008091BC0087FFFCCF81EA0E949200D6
:1001B000C092BC008091BC0087FFFCCF0091BB00C7
:1001C000D092BC0085E38A95F1F700008AE491E0C3
:1001D0000E9452008E2D0E945E008F2D0E945E00B4
:1001E0008DE491E00E9452008AE491E00E94520066
:1001F000802F0E945E008CE291E00E9452008FE905
:100200009FE00197F1F700C000002196C11590E131
:0C021000D90709F0B3CFFFCFF894FFCF5F
:10021C003031323334353637383941424344454630
:10022C0000454550524F4D2054657374202841545D
:10023C0032344333322C2030783530290D0A0052B9
:10024C00656164696E6720454550524F4D20636F60
:10025C006E74656E74733A0D0A00307800203A2083
:02026C00000090
:00000001FF
