:100000000C9434000C943E000C943E000C943E0082
:100010000C943E000C943E000C943E000C943E0068
:100020000C943E000C943E000C943E000C943E0058
:100030000C943E000C943E000C943E000C943E0048
:100040000C943E000C943E000C943E000C943E0038
:100050000C943E000C943E000C943E000C943E0028
:100060000C943E000C943E0011241FBECFEFD8E04C
:10007000DEBFCDBF0E9453000C9485000C9400009D
:10008000569A8AB1837F8AB98BB18C608BB90895F7
:1000900089B182FB882780F94B9902C090E001C0AA
:1000A00092E0892B08950E9440000E944800C82FCA
:1000B0000E944800C81701F1C11103C0813081F4CA
:1000C00022C0C13019F48330A1F41DC0C33019F42B
:1000D000823061F418C0C23079F48823A1F003C0E3
:1000E000823051F408C0833039F405C0813021F4E6
:1000F00002C0811101C05E98EFE3FFE13197F1F793
:0E01000000C00000D4CF5E9AF7CFF894FFCF76
:00000001FF
