:100000000C9434000C943E000C943E000C943E0082
:100010000C943E000C943E000C943E000C943E0068
:100020000C943E000C943E000C943E000C943E0058
:100030000C943E000C943E000C943E000C943E0048
:100040000C943E000C943E000C943E000C943E0038
:100050000C943E000C943E000C943E000C943E0028
:100060000C943E000C943E0011241FBECFEFD8E04C
:10007000DEBFCDBF0E9448000C945C000C940000D1
:10008000569A84B5836884BD85B5826085BD089520
:100090000E94400091E080E087BDEFE3FCE93197EA
:1000A000F1F700C00000890F8F3F11F49FEFF4CFEC
:0C00B0008111F2CF91E0F0CFF894FFCF67
:00000001FF
