:100000000C9434000C943E000C943E000C943E0082
:100010000C943E000C943E000C943E000C943E0068
:100020000C943E000C943E000C943E000C943E0058
:100030000C943E000C943E000C943E000C943E0048
:100040000C943E000C943E000C943E000C943E0038
:100050000C943E000C943E000C943E000C943E0028
:100060000C943E000C943E0011241FBECFEFD8E04C
:10007000DEBFCDBF0E9440000C9469000C940000CC
:10008000569A80E480937C0087E880937A00809180
:100090007C00807F80937C0080917A0080648093D4
:1000A0007A0080917A0086FDFCCF80917800909153
:1000B00079008130924010F05E9A01C05E988FEF17
:1000C00090E722E0815090402040E1F700C000001E
:0600D000DECFF894FFCF23
:00000001FF
