:100000000C9434000C943E000C943E000C943E0082
:100010000C943E000C943E000C943E000C943E0068
:100020000C943E000C943E000C943E000C943E0058
:100030000C943E000C943E000C943E000C943E0048
:100040000C943E000C943E000C943E000C943E0038
:100050000C943E000C943E000C943E000C943E0028
:100060000C943E000C943E0011241FBECFEFD8E04C
:10007000DEBFCDBF0E9440000C945B000C940000DA
:10008000569A52985A9A81E099B192FB992790F921
:100090008917D1F32FEF80E792E021508040904004
:1000A000E1F700C0000081E04A9903C080E05E9A59
:0A00B000EBCF5E98E9CFF894FFCF84
:00000001FF
