:100000000C9434000C9448000C948B000C94460023
:100010000C9446000C9446000C9446000C94460048
:100020000C9446000C9446000C9446000C94460038
:100030000C9446000C9446000C9446000C94460028
:100040000C9446000C9446000C9446000C94460018
:100050000C9446000C9446000C9446000C94460008
:100060000C9446000C94460011241FBECFEFD8E03C
:10007000DEBFCDBF21E0A0E0B1E001C01D92A730FE
:10008000B207E1F70E94CE000C9402010C9400002C
:100090001F920F920FB60F9211242F933F938F93BD
:1000A0009F938FE39FE10197F1F700C0000089B1B2
:1000B00082FB882780F999B193FB992790F92091C9
:1000C00001012817F9F098130EC09FEF90930601D5
:1000D00020910201309103012F5F3F4F30930301C4
:1000E000209302010DC091E090930601209104013C
:1000F000309105012F5F3F4F30930501209304019C
:10010000809301019F918F913F912F910F900FBE8E
:100110000F901F9018951F920F920FB60F921124F7
:100120002F933F938F939F938FE39FE10197F1F775
:1001300000C0000099B192FB992790F989B183FB27
:10014000882780F9209100012817F9F089130EC043
:1001500091E09093060120910401309105012F5FF9
:100160003F4F30930501209304010DC09FEF909302
:10017000060120910201309103012F5F3F4F309320
:10018000030120930201809300019F918F913F9181
:100190002F910F900FBE0F901F901895259A2D98B4
:1001A0008AB1837F8AB98BB18C608BB989B182FBAC
:1001B000882780F98093010189B183FB882780F922
:1001C00080930001809169008560809369008DB300
:1001D00083608DBB78948091040190910501039711
:1001E00028F02D9A109205011092040180910201CD
:1001F00090910301069778F32D98109203011092C5
:080200000201E9CFF894FFCFE1
:00000001FF
