:100000000C9434000C943E000C943E000C943E0082
:100010000C943E000C943E000C943E000C943E0068
:100020000C943E000C943E000C943E000C943E0058
:100030000C943E000C943E000C943E000C943E0048
:100040000C943E000C943E000C943E000C943E0038
:100050000C943E000C943E000C943E000C943E0028
:100060000C943E000C943E0011241FBECFEFD8E04C
:10007000DEBFCDBF0E9452000C947B000C940000A8
:10008000259A8AB1837F8AB98BB18C608BB9089528
:1000900089B182FB882780F9089589B183FB88277D
:1000A00080F908950E9440000E944800182FC0E087
:1000B000D0E00E944800082F0E944D00113099F4B2
:1000C000011111C0811102C0219601C02197C330D6
:1000D000D10514F02D9A05C0CB3F8FEFD8071CF443
:1000E0002D98C0E0D0E08FE39FE10197F1F700C0C9
:0A00F0000000102FDECFF894FFCFC0
:00000001FF
