:100000000C9434000C9449000C9449000C94490061
:100010000C9449000C9449000C9449000C9449003C
:100020000C9449000C9449000C9449000C9449002C
:100030000C9449000C9449000C9449000C9449001C
:100040000C9449000C9449000C9449000C9449000C
:100050000C9449000C9449000C9449000C944900FC
:100060000C9449000C94490011241FBECFEFD8E036
:10007000DEBFCDBF11E0A0E0B1E0E6E5F1E002C0F7
:1000800005900D92A031B107D9F70E9473000C942E
:10009000A9000C9400009B01AC0160E472E48FE0C5
:1000A00090E00E948700215031093093C5002093D1
:1000B000C40088E08093C10086E08093C200089568
:1000C0009091C00095FFFCCF8093C6000895CF9318
:1000D000DF93EC018991882319F00E946000FACF28
:1000E000DF91CF91089560E875E280E090E00E9492
:1000F0004B0080E091E00E9467002FEF83ED90E3DA
:10010000215080409040E1F700C00000F2CFA1E212
:100110001A2EAA1BBB1BFD010DC0AA1FBB1FEE1F81
:10012000FF1FA217B307E407F50720F0A21BB30BCC
:10013000E40BF50B661F771F881F991F1A9469F748
:1001400060957095809590959B01AC01BD01CF01A4
:060150000895F894FFCFB2
:1001560048656C6C6F2C20576F726C64210D0A0019
:00000001FF
